{
  "_format": "hh-sol-artifact-1",
  "contractName": "Casino",
  "sourceName": "contracts/Casino.sol",
  "abi": [
    {
      "inputs": [
        {
          "internalType": "address",
          "name": "_vault",
          "type": "address"
        },
        {
          "internalType": "address",
          "name": "_token",
          "type": "address"
        }
      ],
      "stateMutability": "nonpayable",
      "type": "constructor"
    },
    {
      "anonymous": false,
      "inputs": [
        {
          "indexed": true,
          "internalType": "address",
          "name": "player",
          "type": "address"
        },
        {
          "indexed": false,
          "internalType": "uint256",
          "name": "amountBet",
          "type": "uint256"
        },
        {
          "indexed": false,
          "internalType": "bool",
          "name": "won",
          "type": "bool"
        },
        {
          "indexed": false,
          "internalType": "uint256",
          "name": "amountWon",
          "type": "uint256"
        }
      ],
      "name": "GameResult",
      "type": "event"
    },
    {
      "inputs": [
        {
          "internalType": "uint8",
          "name": "_choice",
          "type": "uint8"
        }
      ],
      "name": "flipCoin",
      "outputs": [],
      "stateMutability": "payable",
      "type": "function"
    },
    {
      "inputs": [],
      "name": "owner",
      "outputs": [
        {
          "internalType": "address",
          "name": "",
          "type": "address"
        }
      ],
      "stateMutability": "view",
      "type": "function"
    },
    {
      "inputs": [],
      "name": "rewardAmount",
      "outputs": [
        {
          "internalType": "uint256",
          "name": "",
          "type": "uint256"
        }
      ],
      "stateMutability": "view",
      "type": "function"
    },
    {
      "inputs": [
        {
          "internalType": "uint256",
          "name": "_amount",
          "type": "uint256"
        }
      ],
      "name": "setRewardAmount",
      "outputs": [],
      "stateMutability": "nonpayable",
      "type": "function"
    },
    {
      "inputs": [],
      "name": "token",
      "outputs": [
        {
          "internalType": "contract ICasinoLoyaltyToken",
          "name": "",
          "type": "address"
        }
      ],
      "stateMutability": "view",
      "type": "function"
    },
    {
      "inputs": [],
      "name": "vault",
      "outputs": [
        {
          "internalType": "contract IVault",
          "name": "",
          "type": "address"
        }
      ],
      "stateMutability": "view",
      "type": "function"
    }
  ],
  "bytecode": "0x6080604052600a60035534801561001557600080fd5b50604051610e11380380610e1183398181016040528101906100379190610163565b336000806101000a81548173ffffffffffffffffffffffffffffffffffffffff021916908373ffffffffffffffffffffffffffffffffffffffff16021790555081600160006101000a81548173ffffffffffffffffffffffffffffffffffffffff021916908373ffffffffffffffffffffffffffffffffffffffff16021790555080600260006101000a81548173ffffffffffffffffffffffffffffffffffffffff021916908373ffffffffffffffffffffffffffffffffffffffff16021790555050506101a3565b600080fd5b600073ffffffffffffffffffffffffffffffffffffffff82169050919050565b600061013082610105565b9050919050565b61014081610125565b811461014b57600080fd5b50565b60008151905061015d81610137565b92915050565b6000806040838503121561017a57610179610100565b5b60006101888582860161014e565b92505060206101998582860161014e565b9150509250929050565b610c5f806101b26000396000f3fe6080604052600436106100555760003560e01c80636afa82ea1461005a5780638da5cb5b14610076578063a8a65a78146100a1578063f7b2a7be146100ca578063fbfa77cf146100f5578063fc0c546a14610120575b600080fd5b610074600480360381019061006f9190610607565b61014b565b005b34801561008257600080fd5b5061008b6104bb565b6040516100989190610675565b60405180910390f35b3480156100ad57600080fd5b506100c860048036038101906100c391906106c6565b6104df565b005b3480156100d657600080fd5b506100df610577565b6040516100ec9190610702565b60405180910390f35b34801561010157600080fd5b5061010a61057d565b604051610117919061077c565b60405180910390f35b34801561012c57600080fd5b506101356105a3565b60405161014291906107b8565b60405180910390f35b60008160ff161480610160575060018160ff16145b61019f576040517f08c379a000000000000000000000000000000000000000000000000000000000815260040161019690610856565b60405180910390fd5b600034116101e2576040517f08c379a00000000000000000000000000000000000000000000000000000000081526004016101d9906108c2565b60405180910390fd5b6002346101ef9190610911565b600160009054906101000a900473ffffffffffffffffffffffffffffffffffffffff1673ffffffffffffffffffffffffffffffffffffffff166312065fe06040518163ffffffff1660e01b8152600401602060405180830381865afa15801561025c573d6000803e3d6000fd5b505050506040513d601f19601f820116820180604052508101906102809190610968565b10156102c1576040517f08c379a00000000000000000000000000000000000000000000000000000000081526004016102b890610a07565b60405180910390fd5b600042336040516020016102d6929190610a90565b6040516020818303038152906040528051906020012060001c905060006002826103009190610aeb565b905060008360ff168214905060008161031a576000610328565b6002346103279190610911565b5b905081156103d057600160009054906101000a900473ffffffffffffffffffffffffffffffffffffffff1673ffffffffffffffffffffffffffffffffffffffff16634e958d053360023461037c9190610911565b6040518363ffffffff1660e01b8152600401610399929190610b1c565b600060405180830381600087803b1580156103b357600080fd5b505af11580156103c7573d6000803e3d6000fd5b505050506103d1565b5b3373ffffffffffffffffffffffffffffffffffffffff167f0683e7a316732dfffc744a768cd7959faa44d563f48d0905509071c3e487c85f34848460405161041b93929190610b60565b60405180910390a2600260009054906101000a900473ffffffffffffffffffffffffffffffffffffffff1673ffffffffffffffffffffffffffffffffffffffff166340c10f19336003546040518363ffffffff1660e01b8152600401610482929190610b1c565b600060405180830381600087803b15801561049c57600080fd5b505af11580156104b0573d6000803e3d6000fd5b505050505050505050565b60008054906101000a900473ffffffffffffffffffffffffffffffffffffffff1681565b60008054906101000a900473ffffffffffffffffffffffffffffffffffffffff1673ffffffffffffffffffffffffffffffffffffffff163373ffffffffffffffffffffffffffffffffffffffff161461056d576040517f08c379a000000000000000000000000000000000000000000000000000000000815260040161056490610c09565b60405180910390fd5b8060038190555050565b60035481565b600160009054906101000a900473ffffffffffffffffffffffffffffffffffffffff1681565b600260009054906101000a900473ffffffffffffffffffffffffffffffffffffffff1681565b600080fd5b600060ff82169050919050565b6105e4816105ce565b81146105ef57600080fd5b50565b600081359050610601816105db565b92915050565b60006020828403121561061d5761061c6105c9565b5b600061062b848285016105f2565b91505092915050565b600073ffffffffffffffffffffffffffffffffffffffff82169050919050565b600061065f82610634565b9050919050565b61066f81610654565b82525050565b600060208201905061068a6000830184610666565b92915050565b6000819050919050565b6106a381610690565b81146106ae57600080fd5b50565b6000813590506106c08161069a565b92915050565b6000602082840312156106dc576106db6105c9565b5b60006106ea848285016106b1565b91505092915050565b6106fc81610690565b82525050565b600060208201905061071760008301846106f3565b92915050565b6000819050919050565b600061074261073d61073884610634565b61071d565b610634565b9050919050565b600061075482610727565b9050919050565b600061076682610749565b9050919050565b6107768161075b565b82525050565b6000602082019050610791600083018461076d565b92915050565b60006107a282610749565b9050919050565b6107b281610797565b82525050565b60006020820190506107cd60008301846107a9565b92915050565b600082825260208201905092915050565b7f43686f696365206d75737420626520302028486561647329206f72203120285460008201527f61696c7329000000000000000000000000000000000000000000000000000000602082015250565b60006108406025836107d3565b915061084b826107e4565b604082019050919050565b6000602082019050818103600083015261086f81610833565b9050919050565b7f4d7573742073656e642045544820746f20706c61636520612062657400000000600082015250565b60006108ac601c836107d3565b91506108b782610876565b602082019050919050565b600060208201905081810360008301526108db8161089f565b9050919050565b7f4e487b7100000000000000000000000000000000000000000000000000000000600052601160045260246000fd5b600061091c82610690565b915061092783610690565b925082820261093581610690565b9150828204841483151761094c5761094b6108e2565b5b5092915050565b6000815190506109628161069a565b92915050565b60006020828403121561097e5761097d6105c9565b5b600061098c84828501610953565b91505092915050565b7f486f7573652063616e6e6f74206166666f726420706f74656e7469616c20706160008201527f796f757400000000000000000000000000000000000000000000000000000000602082015250565b60006109f16024836107d3565b91506109fc82610995565b604082019050919050565b60006020820190508181036000830152610a20816109e4565b9050919050565b6000819050919050565b610a42610a3d82610690565b610a27565b82525050565b60008160601b9050919050565b6000610a6082610a48565b9050919050565b6000610a7282610a55565b9050919050565b610a8a610a8582610654565b610a67565b82525050565b6000610a9c8285610a31565b602082019150610aac8284610a79565b6014820191508190509392505050565b7f4e487b7100000000000000000000000000000000000000000000000000000000600052601260045260246000fd5b6000610af682610690565b9150610b0183610690565b925082610b1157610b10610abc565b5b828206905092915050565b6000604082019050610b316000830185610666565b610b3e60208301846106f3565b9392505050565b60008115159050919050565b610b5a81610b45565b82525050565b6000606082019050610b7560008301866106f3565b610b826020830185610b51565b610b8f60408301846106f3565b949350505050565b7f4f6e6c79206f776e65722063616e2063616c6c20746869732066756e6374696f60008201527f6e00000000000000000000000000000000000000000000000000000000000000602082015250565b6000610bf36021836107d3565b9150610bfe82610b97565b604082019050919050565b60006020820190508181036000830152610c2281610be6565b905091905056fea26469706673582212205a1d3b41166cdf2d09466b2765f90a5415138c7e747f3aa038a3a6cd000c133164736f6c634300081c0033",
  "linkReferences": {},
  "deployedLinkReferences": {}
}